{
  "abi": [
    {
      "inputs": [
        {
          "internalType": "uint256",
          "name": "price",
          "type": "uint256"
        },
        {
          "internalType": "contract IERC20",
          "name": "tokenContract",
          "type": "address"
        },
        {
          "internalType": "address",
          "name": "buyer",
          "type": "address"
        },
        {
          "internalType": "address",
          "name": "seller",
          "type": "address"
        },
        {
          "internalType": "address",
          "name": "arbiter",
          "type": "address"
        },
        {
          "internalType": "uint256",
          "name": "arbiterFee",
          "type": "uint256"
        }
      ],
      "stateMutability": "nonpayable",
      "type": "constructor"
    },
    {
      "inputs": [],
      "name": "Escrow__BuyerZeroAddress",
      "type": "error"
    },
    {
      "inputs": [],
      "name": "Escrow__DisputeRequiresArbiter",
      "type": "error"
    },
    {
      "inputs": [
        {
          "internalType": "uint256",
          "name": "price",
          "type": "uint256"
        },
        {
          "internalType": "uint256",
          "name": "fee",
          "type": "uint256"
        }
      ],
      "name": "Escrow__FeeExceedsPrice",
      "type": "error"
    },
    {
      "inputs": [
        {
          "internalType": "enum IEscrow.State",
          "name": "currentState",
          "type": "uint8"
        },
        {
          "internalType": "enum IEscrow.State",
          "name": "expectedState",
          "type": "uint8"
        }
      ],
      "name": "Escrow__InWrongState",
      "type": "error"
    },
    {
      "inputs": [],
      "name": "Escrow__MustDeployWithTokenBalance",
      "type": "error"
    },
    {
      "inputs": [],
      "name": "Escrow__OnlyArbiter",
      "type": "error"
    },
    {
      "inputs": [],
      "name": "Escrow__OnlyBuyer",
      "type": "error"
    },
    {
      "inputs": [],
      "name": "Escrow__OnlyBuyerOrSeller",
      "type": "error"
    },
    {
      "inputs": [],
      "name": "Escrow__SellerZeroAddress",
      "type": "error"
    },
    {
      "inputs": [],
      "name": "Escrow__TokenZeroAddress",
      "type": "error"
    },
    {
      "inputs": [
        {
          "internalType": "uint256",
          "name": "balance",
          "type": "uint256"
        },
        {
          "internalType": "uint256",
          "name": "totalFee",
          "type": "uint256"
        }
      ],
      "name": "Escrow__TotalFeeExceedsBalance",
      "type": "error"
    },
    {
      "anonymous": false,
      "inputs": [
        {
          "indexed": true,
          "internalType": "address",
          "name": "seller",
          "type": "address"
        }
      ],
      "name": "Confirmed",
      "type": "event"
    },
    {
      "anonymous": false,
      "inputs": [
        {
          "indexed": true,
          "internalType": "address",
          "name": "disputer",
          "type": "address"
        }
      ],
      "name": "Disputed",
      "type": "event"
    },
    {
      "anonymous": false,
      "inputs": [
        {
          "indexed": true,
          "internalType": "address",
          "name": "buyer",
          "type": "address"
        },
        {
          "indexed": true,
          "internalType": "address",
          "name": "seller",
          "type": "address"
        }
      ],
      "name": "Resolved",
      "type": "event"
    },
    {
      "inputs": [],
      "name": "confirmReceipt",
      "outputs": [],
      "stateMutability": "nonpayable",
      "type": "function"
    },
    {
      "inputs": [],
      "name": "getArbiter",
      "outputs": [
        {
          "internalType": "address",
          "name": "",
          "type": "address"
        }
      ],
      "stateMutability": "view",
      "type": "function"
    },
    {
      "inputs": [],
      "name": "getArbiterFee",
      "outputs": [
        {
          "internalType": "uint256",
          "name": "",
          "type": "uint256"
        }
      ],
      "stateMutability": "view",
      "type": "function"
    },
    {
      "inputs": [],
      "name": "getBuyer",
      "outputs": [
        {
          "internalType": "address",
          "name": "",
          "type": "address"
        }
      ],
      "stateMutability": "view",
      "type": "function"
    },
    {
      "inputs": [],
      "name": "getPrice",
      "outputs": [
        {
          "internalType": "uint256",
          "name": "",
          "type": "uint256"
        }
      ],
      "stateMutability": "view",
      "type": "function"
    },
    {
      "inputs": [],
      "name": "getSeller",
      "outputs": [
        {
          "internalType": "address",
          "name": "",
          "type": "address"
        }
      ],
      "stateMutability": "view",
      "type": "function"
    },
    {
      "inputs": [],
      "name": "getState",
      "outputs": [
        {
          "internalType": "enum IEscrow.State",
          "name": "",
          "type": "uint8"
        }
      ],
      "stateMutability": "view",
      "type": "function"
    },
    {
      "inputs": [],
      "name": "getTokenContract",
      "outputs": [
        {
          "internalType": "contract IERC20",
          "name": "",
          "type": "address"
        }
      ],
      "stateMutability": "view",
      "type": "function"
    },
    {
      "inputs": [],
      "name": "initiateDispute",
      "outputs": [],
      "stateMutability": "nonpayable",
      "type": "function"
    },
    {
      "inputs": [
        {
          "internalType": "uint256",
          "name": "buyerAward",
          "type": "uint256"
        }
      ],
      "name": "resolveDispute",
      "outputs": [],
      "stateMutability": "nonpayable",
      "type": "function"
    }
  ],
  "bytecode": {
    "object": "0x610140604081815234620002295760c08262000d9280380380916200002582856200022e565b8339810103126200022957815160208301516001600160a01b0392918382169182810362000229576200005a84870162000268565b91620000696060880162000268565b9360a06200007a60808a0162000268565b98015196600160005581156200021857808516156200020757851615620001f65781871015620001d95760206024918751928380926370a0823160e01b82523060048301525afa908115620001ce5790829160009162000191575b5010620001805760805260a05260c05260e0526101009283526101209182525190610b1492836200027e843960805183610493015260a0518381816101cb0152818161057001526107d3015260c051838181610267015281816104d20152818161065901526106a6015260e05183818160e4015281816102aa0152818161052101526107960152518281816101270152818161016e01526106eb01525181818160a9015261021c0152f35b8451637cd635f960e11b8152600490fd5b91506020823d8211620001c5575b81620001ae602093836200022e565b81010312620001c2575081905138620000d5565b80fd5b3d91506200019f565b86513d6000823e3d90fd5b60448288885191631968a88560e01b835260048301526024820152fd5b855163b8b7f2a360e01b8152600490fd5b8651630e4336f960e21b8152600490fd5b8651635b5a11e560e01b8152600490fd5b600080fd5b601f909101601f19168101906001600160401b038211908210176200025257604052565b634e487b7160e01b600052604160045260246000fd5b51906001600160a01b0382168203620002295756fe608060408181526004918236101561001657600080fd5b600092833560e01c9182631865c57d146108025750816328b7bede146107be5781634acc296f14610688578163603daf9a146106445781637d94ad98146104b657816398d5fdca1461047b578163c2b7b8681461015657508063cffe00f914610113578063dbd0e1b6146100d05763e83b58901461009357600080fd5b346100cc57816003193601126100cc57602090517f00000000000000000000000000000000000000000000000000000000000000008152f35b5080fd5b50346100cc57816003193601126100cc57517f00000000000000000000000000000000000000000000000000000000000000006001600160a01b03168152602090f35b50346100cc57816003193601126100cc57517f00000000000000000000000000000000000000000000000000000000000000006001600160a01b03168152602090f35b91905034610477576020918260031936011261034b577f0000000000000000000000000000000000000000000000000000000000000000926001600160a01b0391803591908386163303610469576002875414610428576002875560015460ff81168281101561041557600281036103ed57507f000000000000000000000000000000000000000000000000000000000000000096858816948751906370a0823160e01b93848352308684015286836024818b5afa9283156103e3578c936103b0575b507f0000000000000000000000000000000000000000000000000000000000000000928383019081841161039d57808211610381575050918b6024949260038998979560ff1916176001558a7f0000000000000000000000000000000000000000000000000000000000000000927f85fe05c69e32ec3aed403e05e055faa5b8f0dec24c0f5ef97a497b8f4b8228b57f00000000000000000000000000000000000000000000000000000000000000009d8e169285169180a380610370575b50508061035f575b505087519586938492835230908301525afa93841561035657508593610322575b505081610311575b836001815580f35b61031a92610883565b388080610309565b9080929350813d831161034f575b61033a818361084b565b8101031261034b5751903880610301565b8380fd5b503d610330565b513d87823e3d90fd5b610369918b610883565b38806102e0565b61037a918d610883565b38806102d8565b60449188918d5192633f0219c760e11b84528301526024820152fd5b634e487b7160e01b8e526011885260248efd5b9092508681813d83116103dc575b6103c8818361084b565b810103126103d857519138610219565b8b80fd5b503d6103be565b8a513d8e823e3d90fd5b8651600162b8eadb60e01b0319815260449161040c9082860190610828565b60026024820152fd5b634e487b7160e01b895260218352602489fd5b60649185519162461bcd60e51b8352820152601f60248201527f5265656e7472616e637947756172643a207265656e7472616e742063616c6c006044820152fd5b84516356d3c2ab60e11b8152fd5b8280fd5b5050346100cc57816003193601126100cc57602090517f00000000000000000000000000000000000000000000000000000000000000008152f35b8383346100cc57816003193601126100cc576001600160a01b037f000000000000000000000000000000000000000000000000000000000000000081163303610634576001549360ff85168181101561062157806105fd575060016024949560ff19161760015560207f0000000000000000000000000000000000000000000000000000000000000000928451958682819387167fd415b905d4dd806bfba99a7a0e6351bd0c9db3a9912add21c0e6bef4479f673f8b80a27f0000000000000000000000000000000000000000000000000000000000000000956370a0823160e01b8352309083015285165afa9283156105f4575084926105bf575b6105bc9350610883565b80f35b91506020833d82116105ec575b816105d96020938361084b565b8101031261034b576105bc9251916105b2565b3d91506105cc565b513d86823e3d90fd5b908461061a60449386519363ff47152560e01b8552840190610828565b6024820152fd5b634e487b7160e01b855260218252602485fd5b81516362f3cf8760e11b81528490fd5b5050346100cc57816003193601126100cc57517f00000000000000000000000000000000000000000000000000000000000000006001600160a01b03168152602090f35b9050346104775782600319360112610477576001600160a01b0391337f00000000000000000000000000000000000000000000000000000000000000008416141580610792575b610785576001549260ff841683811015610772578061075157507f000000000000000000000000000000000000000000000000000000000000000016156107445760ff19831660021760015583337f695fbf2fe28b4fde5705122279ffc4160ebfc0f45e4d96f7e6699001be5062ef8280a280f35b51633d06db2160e01b8152fd5b8251600162b8eadb60e01b03198152604491879061061a9083880190610828565b634e487b7160e01b865260218452602486fd5b5163c3ff666b60e01b8152fd5b50827f0000000000000000000000000000000000000000000000000000000000000000163314156106cf565b5050346100cc57816003193601126100cc57517f00000000000000000000000000000000000000000000000000000000000000006001600160a01b03168152602090f35b8490346100cc57816003193601126100cc578061082660209260ff60015416610828565bf35b9060048210156108355752565b634e487b7160e01b600052602160045260246000fd5b90601f8019910116810190811067ffffffffffffffff82111761086d57604052565b634e487b7160e01b600052604160045260246000fd5b60405163a9059cbb60e01b60208083019182526001600160a01b03948516602484015260448084019690965294825292608082019267ffffffffffffffff9291908385118386101761086d57169060c081018481108482111761086d576040528584527f5361666545524332303a206c6f772d6c6576656c2063616c6c206661696c656460a0820152600080958192519082855af1903d156109ff573d9283116109eb57906109529392916040519261094588601f19601f840116018561084b565b83523d868885013e610a0a565b8051918215918483156109c4575b50505090501561096d5750565b6084906040519062461bcd60e51b82526004820152602a60248201527f5361666545524332303a204552433230206f7065726174696f6e20646964206e6044820152691bdd081cdd58d8d9595960b21b6064820152fd5b9193818094500103126100cc578201519081151582036109e8575080388084610960565b80fd5b634e487b7160e01b85526041600452602485fd5b906109529392506060915b91929015610a6c5750815115610a1e575090565b3b15610a275790565b60405162461bcd60e51b815260206004820152601d60248201527f416464726573733a2063616c6c20746f206e6f6e2d636f6e74726163740000006044820152606490fd5b825190915015610a7f5750805190602001fd5b6040519062461bcd60e51b82528160208060048301528251908160248401526000935b828510610ac5575050604492506000838284010152601f80199101168101030190fd5b8481018201518686016044015293810193859350610aa256fea264697066735822122024eae82b79fe378e90973fa0addec21c2f41def95f68e6347055446c2157236364736f6c63430008120033",
    "linkReferences": {}
  },
  "methodIdentifiers": {
    "confirmReceipt()": "7d94ad98",
    "getArbiter()": "cffe00f9",
    "getArbiterFee()": "e83b5890",
    "getBuyer()": "603daf9a",
    "getPrice()": "98d5fdca",
    "getSeller()": "dbd0e1b6",
    "getState()": "1865c57d",
    "getTokenContract()": "28b7bede",
    "initiateDispute()": "4acc296f",
    "resolveDispute(uint256)": "c2b7b868"
  },
  "id": 28
}