{
  "abi": [
    {
      "inputs": [],
      "stateMutability": "nonpayable",
      "type": "constructor"
    },
    {
      "anonymous": false,
      "inputs": [
        {
          "indexed": true,
          "internalType": "address",
          "name": "owner",
          "type": "address"
        },
        {
          "indexed": true,
          "internalType": "address",
          "name": "spender",
          "type": "address"
        },
        {
          "indexed": false,
          "internalType": "uint256",
          "name": "value",
          "type": "uint256"
        }
      ],
      "name": "Approval",
      "type": "event"
    },
    {
      "anonymous": false,
      "inputs": [
        {
          "indexed": true,
          "internalType": "address",
          "name": "from",
          "type": "address"
        },
        {
          "indexed": true,
          "internalType": "address",
          "name": "to",
          "type": "address"
        },
        {
          "indexed": false,
          "internalType": "uint256",
          "name": "value",
          "type": "uint256"
        }
      ],
      "name": "Transfer",
      "type": "event"
    },
    {
      "inputs": [
        {
          "internalType": "address",
          "name": "owner",
          "type": "address"
        },
        {
          "internalType": "address",
          "name": "spender",
          "type": "address"
        }
      ],
      "name": "allowance",
      "outputs": [
        {
          "internalType": "uint256",
          "name": "",
          "type": "uint256"
        }
      ],
      "stateMutability": "view",
      "type": "function"
    },
    {
      "inputs": [
        {
          "internalType": "address",
          "name": "spender",
          "type": "address"
        },
        {
          "internalType": "uint256",
          "name": "amount",
          "type": "uint256"
        }
      ],
      "name": "approve",
      "outputs": [
        {
          "internalType": "bool",
          "name": "",
          "type": "bool"
        }
      ],
      "stateMutability": "nonpayable",
      "type": "function"
    },
    {
      "inputs": [
        {
          "internalType": "address",
          "name": "account",
          "type": "address"
        }
      ],
      "name": "balanceOf",
      "outputs": [
        {
          "internalType": "uint256",
          "name": "",
          "type": "uint256"
        }
      ],
      "stateMutability": "view",
      "type": "function"
    },
    {
      "inputs": [
        {
          "internalType": "address",
          "name": "account",
          "type": "address"
        },
        {
          "internalType": "uint256",
          "name": "amount",
          "type": "uint256"
        }
      ],
      "name": "burn",
      "outputs": [],
      "stateMutability": "nonpayable",
      "type": "function"
    },
    {
      "inputs": [
        {
          "internalType": "bool",
          "name": "_passes",
          "type": "bool"
        }
      ],
      "name": "changePasses",
      "outputs": [],
      "stateMutability": "nonpayable",
      "type": "function"
    },
    {
      "inputs": [],
      "name": "decimals",
      "outputs": [
        {
          "internalType": "uint8",
          "name": "",
          "type": "uint8"
        }
      ],
      "stateMutability": "view",
      "type": "function"
    },
    {
      "inputs": [
        {
          "internalType": "address",
          "name": "spender",
          "type": "address"
        },
        {
          "internalType": "uint256",
          "name": "subtractedValue",
          "type": "uint256"
        }
      ],
      "name": "decreaseAllowance",
      "outputs": [
        {
          "internalType": "bool",
          "name": "",
          "type": "bool"
        }
      ],
      "stateMutability": "nonpayable",
      "type": "function"
    },
    {
      "inputs": [
        {
          "internalType": "address",
          "name": "spender",
          "type": "address"
        },
        {
          "internalType": "uint256",
          "name": "addedValue",
          "type": "uint256"
        }
      ],
      "name": "increaseAllowance",
      "outputs": [
        {
          "internalType": "bool",
          "name": "",
          "type": "bool"
        }
      ],
      "stateMutability": "nonpayable",
      "type": "function"
    },
    {
      "inputs": [
        {
          "internalType": "address",
          "name": "account",
          "type": "address"
        },
        {
          "internalType": "uint256",
          "name": "amount",
          "type": "uint256"
        }
      ],
      "name": "mint",
      "outputs": [],
      "stateMutability": "nonpayable",
      "type": "function"
    },
    {
      "inputs": [],
      "name": "name",
      "outputs": [
        {
          "internalType": "string",
          "name": "",
          "type": "string"
        }
      ],
      "stateMutability": "view",
      "type": "function"
    },
    {
      "inputs": [],
      "name": "passes",
      "outputs": [
        {
          "internalType": "bool",
          "name": "",
          "type": "bool"
        }
      ],
      "stateMutability": "view",
      "type": "function"
    },
    {
      "inputs": [],
      "name": "symbol",
      "outputs": [
        {
          "internalType": "string",
          "name": "",
          "type": "string"
        }
      ],
      "stateMutability": "view",
      "type": "function"
    },
    {
      "inputs": [],
      "name": "totalSupply",
      "outputs": [
        {
          "internalType": "uint256",
          "name": "",
          "type": "uint256"
        }
      ],
      "stateMutability": "view",
      "type": "function"
    },
    {
      "inputs": [
        {
          "internalType": "address",
          "name": "recipient",
          "type": "address"
        },
        {
          "internalType": "uint256",
          "name": "amount",
          "type": "uint256"
        }
      ],
      "name": "transfer",
      "outputs": [
        {
          "internalType": "bool",
          "name": "",
          "type": "bool"
        }
      ],
      "stateMutability": "nonpayable",
      "type": "function"
    },
    {
      "inputs": [
        {
          "internalType": "address",
          "name": "sender",
          "type": "address"
        },
        {
          "internalType": "address",
          "name": "recipient",
          "type": "address"
        },
        {
          "internalType": "uint256",
          "name": "amount",
          "type": "uint256"
        }
      ],
      "name": "transferFrom",
      "outputs": [
        {
          "internalType": "bool",
          "name": "",
          "type": "bool"
        }
      ],
      "stateMutability": "nonpayable",
      "type": "function"
    }
  ],
  "bytecode": {
    "object": "0x60803462000343576040906001600160401b0390808301828111828210176200032d578352600981526020916845524332304d6f636b60b81b83830152835192848401848110838211176200032d578552600493848152634532304d60e01b8282015283519083821162000318576003928354926001968785811c951680156200030d575b83861014620002f8578190601f95868111620002a2575b5083908683116001146200023b576000926200022f575b505060001982871b1c191690871b1784555b81519485116200021a5786548681811c911680156200020f575b82821014620001fa57838111620001af575b508092851160011462000141575093839491849260009562000135575b50501b92600019911b1c19161790555b60ff196005541660055551610b589081620003498239f35b0151935038806200010d565b92919084601f1981168860005285600020956000905b8983831062000194575050501062000179575b50505050811b0190556200011d565b01519060f884600019921b161c19169055388080806200016a565b85870151895590970196948501948893509081019062000157565b87600052816000208480880160051c820192848910620001f0575b0160051c019087905b828110620001e3575050620000f0565b60008155018790620001d3565b92508192620001ca565b602288634e487b7160e01b6000525260246000fd5b90607f1690620000de565b604187634e487b7160e01b6000525260246000fd5b015190503880620000b2565b90899350601f1983169188600052856000209260005b878282106200028b575050841162000272575b505050811b018455620000c4565b015160001983891b60f8161c1916905538808062000264565b8385015186558d9790950194938401930162000251565b90915086600052836000208680850160051c820192868610620002ee575b918b91869594930160051c01915b828110620002de5750506200009b565b600081558594508b9101620002ce565b92508192620002c0565b602289634e487b7160e01b6000525260246000fd5b94607f169462000084565b604186634e487b7160e01b6000525260246000fd5b634e487b7160e01b600052604160045260246000fd5b600080fdfe608060408181526004918236101561001657600080fd5b600092833560e01c91826306fdde031461066957508163095ea7b31461063f57816318160ddd1461062057816323b872dd146105ee578163313ce567146105d2578163395093511461058257816340c10f19146104bf57816370a082311461048857816395d89b41146103695781639dc29fac14610248578163a457c2d714610199578163a9059cbb14610167578163aac99d981461013857508063b8ee5289146101155763dd62ed3e146100ca57600080fd5b34610111578060031936011261011157806020926100e661078a565b6100ee6107a5565b6001600160a01b0391821683526001865283832091168252845220549051908152f35b5080fd5b503461011157816003193601126101115760209060ff6005541690519015158152f35b83903461011157602036600319011261011157358015158091036101115760ff80196005541691161760055580f35b50503461011157806003193601126101115760209061019061018761078a565b60243590610b03565b90519015158152f35b905082346102455782600319360112610245576101b461078a565b918360243592338152600160205281812060018060a01b03861682526020522054908282106101f4576020856101ed85850387336107de565b5160018152f35b608490602086519162461bcd60e51b8352820152602560248201527f45524332303a2064656372656173656420616c6c6f77616e63652062656c6f77604482015264207a65726f60d81b6064820152fd5b80fd5b8391503461011157826003193601126101115761026361078a565b6001600160a01b03169060243590821561031c578284528360205284842054908282106102ce57508184957fddf252ad1be2c89b69c2b068fc378daa952ba7f163c4a11628f55a4df523b3ef936020938688528785520381872055816002540360025551908152a380f35b608490602087519162461bcd60e51b8352820152602260248201527f45524332303a206275726e20616d6f756e7420657863656564732062616c616e604482015261636560f01b6064820152fd5b608490602086519162461bcd60e51b8352820152602160248201527f45524332303a206275726e2066726f6d20746865207a65726f206164647265736044820152607360f81b6064820152fd5b838334610111578160031936011261011157805190828454600181811c9080831692831561047e575b602093848410811461046b5783885290811561044f57506001146103fa575b505050829003601f01601f191682019267ffffffffffffffff8411838510176103e757508291826103e3925282610741565b0390f35b634e487b7160e01b815260418552602490fd5b8787529192508591837f8a35acfbc15ff81a39ae7d344fd709f28e8600b4aa8c65c6b64bfe7fe36bd19b5b83851061043b57505050508301018580806103b1565b805488860183015293019284908201610425565b60ff1916878501525050151560051b84010190508580806103b1565b634e487b7160e01b895260228a52602489fd5b91607f1691610392565b5050346101115760203660031901126101115760209181906001600160a01b036104b061078a565b16815280845220549051908152f35b9190503461057e578060031936011261057e576104da61078a565b6001600160a01b0316916024359190831561053c57506020827fddf252ad1be2c89b69c2b068fc378daa952ba7f163c4a11628f55a4df523b3ef9261052287956002546107bb565b60025585855284835280852082815401905551908152a380f35b6020606492519162461bcd60e51b8352820152601f60248201527f45524332303a206d696e7420746f20746865207a65726f2061646472657373006044820152fd5b8280fd5b5050346101115780600319360112610111576101ed6020926105cb6105a561078a565b338352600186528483206001600160a01b038216845286529184902054602435906107bb565b90336107de565b5050346101115781600319360112610111576020905160128152f35b5050346101115760603660031901126101115760209061019061060f61078a565b6106176107a5565b604435916108e0565b5050346101115781600319360112610111576020906002549051908152f35b5050346101115780600319360112610111576020906101ed61065f61078a565b60243590336107de565b8490843461057e578260031936011261057e5782600354600181811c90808316928315610737575b602093848410811461046b5783885290811561044f57506001146106e157505050829003601f01601f191682019267ffffffffffffffff8411838510176103e757508291826103e3925282610741565b600387529192508591837fc2575a0e9e593c00f959f8c92f12db2869c3395a3b0502d05e2516446f71f85b5b83851061072357505050508301018580806103b1565b80548886018301529301928490820161070d565b91607f1691610691565b6020808252825181830181905290939260005b82811061077657505060409293506000838284010152601f8019910116010190565b818101860151848201604001528501610754565b600435906001600160a01b03821682036107a057565b600080fd5b602435906001600160a01b03821682036107a057565b919082018092116107c857565b634e487b7160e01b600052601160045260246000fd5b6001600160a01b0390811691821561088f571691821561083f5760207f8c5be1e5ebec7d5bd14f71427d1e84f3dd0314c0f7b2291e5b200ac8c7c3b925918360005260018252604060002085600052825280604060002055604051908152a3565b60405162461bcd60e51b815260206004820152602260248201527f45524332303a20617070726f766520746f20746865207a65726f206164647265604482015261737360f01b6064820152608490fd5b60405162461bcd60e51b8152602060048201526024808201527f45524332303a20617070726f76652066726f6d20746865207a65726f206164646044820152637265737360e01b6064820152608490fd5b919060ff6005541660001461098d5760018060a01b038316600052600160205260406000203360005260205260406000205492600019840361092c575b6109279350610995565b600190565b8284106109485761094383610927950333836107de565b61091d565b60405162461bcd60e51b815260206004820152601d60248201527f45524332303a20696e73756666696369656e7420616c6c6f77616e63650000006044820152606490fd5b505050600090565b6001600160a01b03908116918215610ab05716918215610a5f57600082815280602052604081205491808310610a0b57604082827fddf252ad1be2c89b69c2b068fc378daa952ba7f163c4a11628f55a4df523b3ef958760209652828652038282205586815220818154019055604051908152a3565b60405162461bcd60e51b815260206004820152602660248201527f45524332303a207472616e7366657220616d6f756e7420657863656564732062604482015265616c616e636560d01b6064820152608490fd5b60405162461bcd60e51b815260206004820152602360248201527f45524332303a207472616e7366657220746f20746865207a65726f206164647260448201526265737360e81b6064820152608490fd5b60405162461bcd60e51b815260206004820152602560248201527f45524332303a207472616e736665722066726f6d20746865207a65726f206164604482015264647265737360d81b6064820152608490fd5b9060ff60055416600014610b1b576109279133610995565b505060009056fea2646970667358221220986466882a9ddbba7f83851eea686f015cafb909494aa03ee857f7860caf873a64736f6c63430008120033",
    "linkReferences": {}
  },
  "methodIdentifiers": {
    "allowance(address,address)": "dd62ed3e",
    "approve(address,uint256)": "095ea7b3",
    "balanceOf(address)": "70a08231",
    "burn(address,uint256)": "9dc29fac",
    "changePasses(bool)": "aac99d98",
    "decimals()": "313ce567",
    "decreaseAllowance(address,uint256)": "a457c2d7",
    "increaseAllowance(address,uint256)": "39509351",
    "mint(address,uint256)": "40c10f19",
    "name()": "06fdde03",
    "passes()": "b8ee5289",
    "symbol()": "95d89b41",
    "totalSupply()": "18160ddd",
    "transfer(address,uint256)": "a9059cbb",
    "transferFrom(address,address,uint256)": "23b872dd"
  },
  "id": 33
}